S00D000068656C6C6F2E7372656303
S30D08000000000001204534000848
S31508000008744A0000010000008C4E00000100000040
S31508000018DFF804D003F012BA000001204FF01000F0
S3150800002880F311884FF0020080F31488BFF36F8FAE
S315080000388DF309884EF00D0E7047EFF30980A0F18D
S31508000048300181F309884FF00101EFF30582EFF3D8
S31508000058118320E9FE4F044603F0E8F92046B0E884
S31508000068FE4F80F3098883F31188704700B581B07D
S31508000078EFF30580A0F10F0003F0B0F901B000BD59
S31508000088EFF3098CACF1200080F30988034B044A86
S3150800009804492CE90F002CE90F00704700000001FD
S315080000A8C5330008B1000008074B00DFEFF3098CD9
S315080000B80CF1200C8CF30988704702F087B8EFF327
S315080000C8098C9CE80F001847B500000800B50348D6
S315080000D881B002F0FBFC002001B000BD08530008FF
S315080000E800B581B000F07EFE01B000BD0120704762
S315080000F800B5D0F8983081B00A461BB1D0F89C10E4
S315080001081046984701B000BD10B5826E436E82B09E
S315080001189A4204461ADAC36D826DD1540133C3650F
S31508000128C26D436E9A420ED0A36E0133A366D4F805
S315080001388C3033B10023C4F88C3004F1700001F018
S31508000148C9FB02B010BD0023C365EDE702A9042365
S3150800015841F8083D6946FFF7CBFFE8E7F0B5836A3B
S3150800016881B0002B0546066821DD00270DE02B6ABD
S3150800017801332B622A6A6B6A9A4208BF2F62AB6AF6
S31508000188013BAB62AA6A002A11DD2A6AAB693468A0
S31508000198995C2846A0470028E9D1AB6A6A6AE96AE1
S315080001A8D21A8A4201DBEB6C73B901B0F0BD326929
S315080001B828469047EB6C002BF7D00023EB6405F133
S315080001C8300001F087FBF0E7E86405F1300001F03C
S315080001D881FBEAE730B5426981B0054642B9436A08
S315080001E8C3B96B6E33B900230122C5F898306A6122
S315080001F801B030BD002305F178042046C5F88C30D7
S31508000208C5F8903001F086FB05F17000214601F02B
S315080002186FFBE8E700F138040265C26442652046C8
S3150800022801F078FB05F13000214601F061FB6B6AA5
S31508000238DA1C33EA230328BF13469B10EB626B6E5E
S31508000248002BD0D0D6E7C0462DE9F0414669B1F56E
S31508000258C47F98461746336805D09C683046434697
S31508000268A047BDE8F081D8F80030072B98BF6FF093
S315080002781500F6D91468556801F024FBD6F89830A5
S31508000288D6F89C203B607A60C6F89840C6F89C5019
S3150800029801F06CFB0823C8F800300020E1E7C046E7
S315080002A82DE9F041A1F58071466901399C46356802
S315080002B810290AD8DFE801F02433385F80090909CC
S315080002C809090909090909090E006FF015042046E4
S315080002D8BDE8F081DCF800300F2BF6D91023CCF8EE
S315080002E80030736E1360002B40F094805360706A78
S315080002F89060002800F09980B36A0024D360E6E786
S31508000308DCF80030072BE0D906F10C0393E8030064
S31508000318082382E803000024CCF80030D7E7736A7C
S31508000328002B57D10024D2E7736A002BFAD006F1BE
S315080003383807384601F0E8FA01F0C4FAB36A002B20
S3150800034808DD0023B362B26A3046F261F3692A69A6
S315080003583362904700221346AC68304640F20311D0
S31508000368A047F36C002B6ED101F000FB384601F06C
S31508000378C5FA0024ABE7736E002BD3D006F17807CD
S31508000388384601F0C1FA01F09DFAD6F88C30002BF0
S315080003984ED10024B466B36E4FF48271F365F26DDC
S315080003A823463266AD6822463046A84701F0DEFA8B
S315080003B8384601F0A3FA8AE7736E002B2DD1736AC3
S315080003C8002BAFD00123336506F1300001F082FA1D
S315080003D800247CE706F13808404601F095FA06F14C
S315080003E8300501F06FFA0024012707E0F76428466C
S315080003F801F076FA002808BF6FF00304736D002B26
S31508000408F4D1B36A002BF1DC01F0B0FA404601F0EA
S3150800041875FA5CE7B36E536069E70123C6F890304E
S3150800042806F1700001F056FAC9E7D06004464EE7AF
S315080004380123C6F8903006F1700001F04BFA002344
S31508000448C6F88C30A5E70123336506F1300001F0BC
S3150800045841FA0023F36487E72DE9F04F456981B02F
S31508000468A94659F8788B8A46484617460E4601F033
S315080004784BFA6B6E0024C5F89040BBB93B686BB164
S315080004880134D8F80430284698470AEB040303F8D9
S31508000498010C3B68224601349342F2D800244846A8
S315080004A801F02CFA204601B0BDE8F08F01F00AFAEF
S315080004B805F170084FF0010BA24611E0296EAB6DE5
S315080004C85A5C32702B6E01332B662A6E6B6E9A4213
S315080004D808BFC5F860A0AB6E0136013BAB660134B0
S315080004E83B689C4219D2AB6E002BE7DCC5F88CB08A
S315080004F8404601F0F5F908B9C5F890B0D5F8903036
S31508000508002BEDD000233C60C5F89030C5F88C3038
S315080005186FF0030401F02AFAC1E7002401F026FA6D
S31508000528BDE7C0462DE9F04F456981B0A94659F897
S31508000538387BD2F8008048460E4693468A4601F02C
S31508000548E3F900232B656B6A4446A3B9B8F1000F93
S3150800055809DD1C46315D3B68284698470028F9D0CE
S3150800056801344445F6D10024484601F0C7F9204627
S3150800057801B0BDE8F08F01F0A5F9B8F1000F3ADD32
S3150800058805F1300801260DE0EB691AF8012BA9696F
S31508000598013CCA540133EB61E861AB6A0133AB62CB
S315080005A8002C28DDEB696A6A581CAB6A824208BFC8
S315080005B800209A42E8D1EE64FA6828469047EB6C20
S315080005C86BB92B6D002BEBD0DBF8003000221B1B18
S315080005D8CBF800306FF003042A65EA640CE06B6D0B
S315080005E8404623446B6501F07BF900B92E656B6DAF
S315080005F81B1B6B65E5E70024FB682846984701F04E
S31508000608B5F9B1E7426905230120106053607047C0
S31508000618036800205A6991607047C04610B5D0F83B
S3150800062814C01C4640F281239942DCF8080003D01E
S31508000638234600F083FC10BD2368082B09BF92E8FF
S3150800064803006FF015008CE803000020F3E7C046A6
S3150800065810B540691C4640F201239942D0F808C0F3
S3150800066804D06046234600F057FC10BD2368072BC4
S3150800067898BF6FF01500F8D9082303C882E8030065
S3150800068823600020F1E7C04600B5436981B0986841
S3150800069800F036FC01B000BD2DE9F04F466983B07D
S315080006A8B7688B46904600240DF1070AE946D8F83C
S315080006B800309C4225D20123384651466A460093A3
S315080006C800F00EFC054600284DD19DF807300BF8BA
S315080006D804307268013412F0080FE8D10A2B2ED0BC
S315080006E813D8082B15D012F0040FE0D0012338468A
S315080006F851466A46009300F0E3FBD8F800309C425E
S31508000708D9D3C8F8004000252FE00D2B0ED07F2B33
S31508000718E9D1023C2DD412F0040FC8D00323384679
S315080007281C496A46009300F0CBFBC0E712F0020F9B
S31508000738BDD112F0010F02D00A238DF8073012F046
S31508000748040F0AD0336813F0010F14D10123384671
S3150800075851466A46009300F0B3FB9DF807300BEB49
S31508000768040202F8013CC8F80040284603B0BDE870
S31508000778F08F00249BE702236A4638460649009309
S3150800078800F09EFB9DF807300BEB040202F8013CCB
S31508000798E9E7C0461C530008205300082DE9F04F26
S315080007A8002395B0D0F814A01393DAF80880D2F885
S315080007B800C00F4601921C461D466FF008000DF151
S315080007C80C0B0DF14C0964451DD2395D0A291DD05B
S315080007D8139A14AE06EB0203013201343E2A03F8D3
S315080007E8441C139201D8A445EDD1404659464A46B9
S315080007F800F066FBC0B9019B139A1390D3F800C0A2
S31508000808AD186445E1D315B0BDE8F08FDAF80030C5
S3150800081813F0010FDCD0139A14AB9B184FF00D0692
S3150800082803F8446C0132D4E7019A1560EBE7C04631
S315080008380120704700B540F28113994281B018BF6C
S315080008486FF0150001D001B000BD0348034901F057
S3150800085827F80020F7E7C046445300086053000805
S3150800086800B583B00DF1070000F02EFA9DF80700D1
S3150800087803B000BD00B5084681B000F081FA012032
S3150800088801B000BD054B00B5196881B04A1C1A604D
S3150800089811B9034801F092F901B000BD30080020EB
S315080008A8F013002000B581B0FFF7ECFF01B000BDDA
S315080008B8036800B5586981B04268136898470020EC
S315080008C801B000BD82685268136813F080001CBF27
S315080008D8516001207047C04683685A685068C0B29C
S315080008E87047C0468168CB6948682BB90122CA6136
S315080008F8C36843F08003C3607047C0468168CB6904
S3150800090848682BB10022CA61C36823F08003C36014
S315080009187047C04670B594681546226B636B66685F
S315080009289A4212D0626B636B0132234493F8201003
S315080009386B68102A08BF00226263D3F808C02846E5
S31508000948E047226B636B9A42ECD1E369326813B1CC
S3150800095812F0800F00D170BD6B6828465A68904718
S31508000968E369002BF7D0F36843F08003F360F2E7F6
S315080009782DE9F04F234A0F468978FB7852F821402B
S31508000988214A8568053B52F823A079784FF0000973
S315080009981E4BC5F8349053F821806B6B81B02B63D6
S315080009A88346E8686E6802F015FF286902F012FFA8
S315080009B8686902F00FFFA86902F00CFF44F00C04FE
S315080009C83A78134B44EA0A0453F822103046F4607E
S315080009D8C6F8108002F038FF44F40054F460012386
S315080009E844F02004F46073610BF10C039F42C5F8C8
S315080009F81C901CBF97E8030083E80300012001B098
S31508000A08BDE8F08F74530008885300089853000807
S31508000A18A853000800B59C4640F28113994281B054
S31508000A2803D06FF0150001B000BDDCF80030072BC5
S31508000A38F7D908231146CCF800300022FFF798FFAB
S31508000A480128EED10138EEE730B5446985B0636808
S31508000A5820461A68A5689047636A9BB10D4BA86833
S31508000A6805F15402009305F1380301920293802197
S31508000A782246094B00F066FF686D00F05DFFA8681E
S31508000A8800F054FF04F10C0120460122FFF770FF1D
S31508000A9805B030BD1D090008A50A000830B58C68E0
S31508000AA881B0656800F03CFF2A6812F0200F20D054
S31508000AB805F1040C0120236BDCF80020591C636B34
S31508000AC8102908BF00218B4207D0236BD2B22344D2
S31508000AD883F8202040F0020021632A6812F0200FCC
S31508000AE8E9D112F4007F1CBF22F400732B6001B011
S31508000AF830BD12F0800F05D0EB68032023F0800381
S31508000B08EB60EEE70120ECE7204B21491A682DE94E
S31508000B18F007A1FB0232DFF87C901F4E1F4D204FCD
S31508000B28940C41F2883A42F210785045C8BF4FF4FF
S31508000B38FA7C09DC8300C201D21A1218D20089FB92
S31508000B480213D217C2EB233C33682A6801339B1A6F
S31508000B58B3FBF4F133682A6801339B1AB3FBF4F341
S31508000B685B1A48BF03F57A736345F3DB08FB03F39F
S31508000B7887FB0312DB17D3EBA21308BF0123C01A9E
S31508000B880028D2DCBDE8F0077047C046E43D0020DF
S31508000B9883DE1B43AD8BDB6814E000E018E000E059
S31508000BA8D34D6210014A024B1A60FEE70400FA05A3
S31508000BB80CED00E00020704710F1020F70B534D034
S31508000BC8B0F1FF3F2BD010F1030F16D01C4E441C72
S31508000BD8B0696501B8B14369042100689847194B9B
S31508000BE8194A5B19B3611460B269114688B1536929
S31508000BF8052110689847012070BD114E0024B06978
S31508000C0825460028E7D10F4B0F4A5B19B361B1692E
S31508000C1814604B690868042198470120ECE70A4BD9
S31508000C281868002808DD0138E6E7054A064900235A
S31508000C38086093610120DFE708BF6FF00200DBE771
S31508000C4800020020380A00200407002010F1020FCD
S31508000C5818D0B0F1FF3F0FD010F1030F09D00130BB
S31508000C6841010E4B0E4A18600E4B52185A61012064
S31508000C78704700200146F4E7084B1868002808DD85
S31508000C880138F5E7074A054900230860536101203A
S31508000C98EEE708BF6FF00200EAE7C0460007002043
S31508000CA8380A00200002002000B5054A81B01078ED
S31508000CB820B901231370034A536B984701B000BD46
S31508000CC8340A002000020020074A10B55369044672
S31508000CD823B118681B699847207010BD936918686E
S31508000CE81A6990472070F8E70002002010B5DFF867
S31508000CF870C01C4C002344F823C00133402B194804
S31508000D08F9D1194B194A1A490360DFF868E0002334
S31508000D1802648164C364836318460022C10001EB38
S31508000D2802030132082A4EF823C0F8D101300328F5
S31508000D38F3D1114B114A6FF0010023636263FFF781
S31508000D483BFF6FF00100FFF781FF02F08FFC0020E0
S31508000D58FFF732FF0020FFF779FF0023636410BD11
S31508000D68BD0B00080002002017000800AD0B00089C
S31508000D78110B0008380A0020C10B0008550C00089A
S31508000D8810B50A4C0146636953B11868DB68984779
S31508000D98636C23B1054B0020586400F01BF810BD9E
S31508000DA8A3691868DA689047F2E7C0460002002087
S31508000DB869B14A1E835C032B07D040183AB110F86C
S31508000DC8023C013A0138032BF8D10120704700206C
S31508000DD8FCE7C046BEBE704700B581B002F0ECFA23
S31508000DE801B000BD70B50F4E3368D3B90E480F4D24
S31508000DF8A84214D0044606E0A36943F00103A36198
S31508000E082034AC420BD0E368204698470028F3D133
S31508000E18A36923F00103A3612034AC42F3D101236B
S31508000E28336070BD980A002068070020E80700208C
S31508000E382DE9F041204B214F82B0BB420446884633
S31508000E482BD000931D46D5F800C00023E15C0CEBB7
S31508000E58030004EB0306002929D01CF803203AB13D
S31508000E6801339142F2D02035BD4216D00095EAE703
S31508000E7810F8013C2F2BF6D16868B0B101A9FFF725
S31508000E88D7FF38B9009B1C695CB168460199324698
S31508000E98A04728B102B0BDE8F0816FF00100F9E774
S31508000EA8009BC8F800300020F4E70190EAE70378C9
S31508000EB8002BE1D0D7E7C04668070020E8070020DE
S31508000EC800B5836881B01B68844633B10AB11068D7
S31508000ED808B16046984701B000BD6FF0C900FAE747
S31508000EE800B5836881B05B68844633B10AB1106877
S31508000EF808B16046984701B000BD6FF0C900FAE727
S31508000F0800B5836881B01B6913B1984701B000BD65
S31508000F186FF0C900FAE7C04630B51C46836881B049
S31508000F285D6984463DB10CB1206810B16046234618
S31508000F38A84701B030BD6FF0C900FAE730B51C46BE
S31508000F48836881B09D6984463DB10CB1206810B1AB
S31508000F5860462346A84701B030BD6FF0C900FAE7D6
S31508000F686FF0C9007047C0466FF0C9007047C046A1
S31508000F782DE9F04F914695B050EA010204460D4610
S31508000F88DDF878B01EBF1F464FEAE7780DF101066F
S31508000F9819D130238DF800300DF1010AEC46514677
S31508000FA8002211F8013D09F8023001328C45F8D1C2
S31508000FB8CCEB0A03CCEB0A009944002389F80030E5
S31508000FC815B0BDE8F08F204629463A46434603F051
S31508000FD815FD5A441178204606F8011C3A46294652
S31508000FE8434603F00BFDB2460446013608430D4650
S31508000FF8E9D1EA45EC46D2D1DFE7C04600B581B06B
S31508001008FFF752FE01B000BD0A2810B5044603D002
S315080010182046FFF7B5FE10BD0D20FFF7B1FEF7E72E
S3150800102800B581B0FFF7F0FF01B000BD2DE9F04F1C
S315080010388BB00193149BDFF8C4B0002B14BF4FF094
S3150800104830094FF0200904460D4600230DF1080A19
S315080010580AF803900133202BFAD154EA05031BD169
S3150800106830238DF80830159B01269E42ACBF3246C0
S315080010781A46019B2D2B31D0541E002CA8BF0AEB0B
S31508001088040506DB013C15F80109FFF7BDFF002C2E
S31508001098F8DA0BB0BDE8F08F17464FF000080026BF
S315080010A8204629463A46434603F0A8FC5A4411788E
S315080010B820460AF80610434629463A4603F09EFC97
S315080010C8013650EA010304460D46E9D1159B9E42AE
S315080010D8ACBF32461A46019B2D2BCDD1541E0AABFE
S315080010E803EB040111F8203C4B451EBF14460AAB16
S315080010F819192D2301F8203CBFE7C04620540008DB
S3150800110810B582B00093049B8C46144601930021BF
S3150800111862462346FFF78AFF02B010BD00B50023D2
S3150800112883B010212B220093FFF7EAFF03B000BD16
S3150800113810B50346007830B11C46FFF765FF14F86A
S31508001148010F0028F9D110BD2DE9F04F9FB0059081
S315080011580491039299460AB3039B0022985C40F6C9
S315080011680201002841D00D2814BF002301230A28AC
S3150800117808BF43F00103002B30D1092814BF002308
S315080011880123082808BF43F00103002B26D11B2892
S3150800119824D0A0F12003DBB25E2B1FD9DFF8DC06CA
S315080011A8FFF7C6FF0398FFF7B9FFDFF8D406FFF77E
S315080011B8BFFF00242020FFF727FF59F8040004344E
S315080011C8FFF7ACFF202CF5D1DFF8B806FFF7B0FF1C
S315080011D800200A900A981FB0BDE8F08F01328A42AB
S315080011E8DCD0039B985C0028BDD100274FF0000887
S315080011F80A908346039908780028EBD003990131A9
S315080012082528039140F00A82084610F8011B2D2963
S3150800121800F0BB8200223029099200F0BE82002322
S315080012280793A1F13003DBB2092B00F2C082002232
S315080012385300D2009B185B1810F8011BA3F1300263
S31508001248A1F13003DBB2092BF2D92E2903900C46FB
S315080012580D9200F0B3826C2C00F0CA8200218A46EF
S315080012687A2C04BF039911F8014BA4F1420304BF71
S3150800127803910121362B00F29880DFE803F01D96CA
S315080012881D96969696969696969696969696969661
S31508001298961D96961D9696969696969696961D9643
S315080012A81D96969696969696969696961C969696BB
S315080012B8961D96961D000121BAF1000F00F05D8271
S315080012C809F1070323F0070303F1080C93E88001E3
S315080012D8442C14BF00230123642C14BF184643F07A
S315080012E80100002800F04182B8F1000FC0F295828B
S315080012F80020E1460690A4F12503532B58D8DFE8C9
S3150800130813F08C015700570057005700570057002D
S3150800131857005700570057005700570057005700FF
S3150800132857005700570057005700570057005700EF
S3150800133857005700570057005700570051014401F6
S31508001348970157005700570057005700570057008E
S315080013585700570057005700570057005700C8004E
S31508001368570097015700570097015700570057002D
S3150800137857005700570057005700570051014401B6
S31508001388970157005700570057005700570057004E
S315080013985700570057005700690057005700C800FC
S315080013A85700970157005700970100210691A2E7B1
S315080013B825200499059A904720460499059B98473D
S315080013C80A98CDF82C9002300A90DA46DDF82C9067
S315080013D8D3460FE7059A3020049990477820049950
S315080013E8059B98470A980821023001220A900D9110
S315080013F80792DFF894340EAA00933846414610231C
S31508001408FFF7B6FD0D9ACDF82C90C0EB020283467D
S315080014180D920DF13809069A002A40F083800D9B33
S3150800142807990893002940F084804FF0200A099A02
S31508001438002A00F08880089B0C93069A002A40F038
S315080014489C80BBF1000F0BF1FF3A0FDD002419F859
S31508001458040004990134059A9047C4EB0B03002B42
S31508001468F5DC0A9B4FF0FF3A5B440A930998002873
S31508001478ACD00C990029A9DD0C4620200499059AB8
S31508001488013C9047002CF8DC0A9B0C981B180A9319
S315080014989CE709F10400D9F800900B90B9F1000F00
S315080014A800F0E781002119F8012032B30D2A14BF8C
S315080014B8002301230A2A08BF43F00103002B40F042
S315080014C84D81092A14BF00230123082A08BF43F0BF
S315080014D80103002B40F042811B2A00F03F81A2F14C
S315080014E82003DBB25E2B40F23981E848FFF720FE7D
S315080014F84846FFF713FEDFF8989399F80000002886
S3150800150800F0BA814FF0000B0BF1010B19F80B30FC
S31508001518002BF9D10D9B069ACBEB03030D93002AF2
S315080015283FF47DAF0D9807990138089000293FF4D4
S315080015387CAF069A002A40F07E81099A4FF0300A55
S31508001548002A7FF478AF08980899013800290C9082
S315080015587FF773AF0C4650460499059A013C9047A5
S31508001568002CF8DC0A9B0898069A1B184FF0FF31DE
S315080015780A930C91002A3FF464AF10460499059B18
S3150800158898470A9801300A905BE709F104000B901E
S31508001598049999F80000059A90470A9BDA46013398
S315080015A80A9313E7002A40F05281BAF1000F14BFD4
S315080015B84FF0400B4FF0200B14BF4FF03F0C4FF085
S315080015C81F0C0020C0F12003A0F1200237FA00F50D
S315080015D808FA03F348FA02F148FA00F643EA050559
S315080015E815EA220538BF0D460022012105EA01033E
S315080015F806EA020453EA040214BF31222E220EAB6D
S315080016081A5401306045DDDB0D98CDF82C90CBEBEC
S3150800161800000D900DF13809FDE625200499059A74
S3150800162890470A9BCDF82C9001330A93DA46CDE603
S31508001638A4F14403342B76D801A050F823F0C04609
S315080016481D1700082F1700082F1700082F1700085E
S315080016582F1700082F1700082F1700082F1700083C
S315080016682F1700082F1700082F1700082F1700082C
S315080016782F1700082F1700082F1700082F1700081C
S315080016882F1700081D1700082F1700082F1700081E
S31508001698411700082F1700082F1700082F170008EA
S315080016A82F1700082F1700082F1700082F170008EC
S315080016B82F1700082F1700082F1700082F170008DC
S315080016C81D1700082F1700082F1700082F170008DE
S315080016D82F1700082F1700082F1700082F170008BC
S315080016E82F1700082F1700082F1700082F170008AC
S315080016F8FB1300082F1700082F1700082F170008D4
S315080017082F1700081D1700082F1700082F1700089D
S31508001718FB1300085F4B3846009341460EAA0A2376
S31508001728FFF726FC83460D99CDF82C90CBEB0101E3
S315080017380D910DF138096EE6574B38460093414628
S3150800174810230EAAFFF714FC0D9BCDF82C90C0EBBE
S31508001758030383460D930DF138095CE6013140F61B
S31508001768020291427FF49FAEBFE600294AD03F465F
S315080017784FF00008E1460690BDE5D9F8003009F1B2
S31508001788040C1F464FEAE778A2E5039B012259781D
S315080017980130302909927FF442AD10F8011B012265
S315080017A8A1F13003DBB2092B07927FF640AD002280
S315080017B82E2903900C460D927FF44DAD034613F877
S315080017C8014B07990393A4F13003DBB20131092BC6
S315080017D807913FF640AD811C11F8014C0391A4F11D
S315080017E83003DBB20131092BF6D96C2C7FF436AD00
S315080017F8039B13F8014B6C2C039315D001214FF06A
S31508001808000A2DE5BAF1000F7FF472AD3F464FF096
S315080018180008E146CDF818A06DE52D237F4268EB50
S315080018284808E146069366E50398012110F8014B36
S315080018388A46039014E506980499059B98470A98DA
S31508001848002101300A904FF0300A0691EFE50D980D
S3150800185800F1FF3CBCF1000FC8BF83463FF7B1AEA5
S315080018680021CDF82C90DDF834B00DF138090D912A
S31508001878D1E5DFF8289040E68346CCE534540008DD
S315080018884C54000850540008605400087C5400085A
S31508001898905400085454000820540008745400084A
S315080018A80FB400B5064981B002AB53F8042B086893
S315080018B80021FFF749FC01B05DF804EB04B0704756
S315080018C808070020024A1368013313607047C046A8
S315080018D81007002000B581B001F00EF801B000BD70
S315080018E800B5016881B001F07BF801B000BDC046BB
S315080018F800B581B000F046FF01B000BD00B581B063
S3150800190801F024F801B000BD00B581B000F03EFF33
S3150800191801B000BD00B581B000F014FF01B000BDEC
S3150800192800B581B000F07EFC01B000BD00B581B0FD
S3150800193800F07EFC01B000BD00B581B000F084FC63
S3150800194801B000BD30B583B0089C0093069B844659
S315080019588E461546019320462B466146724600F088
S31508001968DBFB079B1C6003B030BDC04600B5084AC0
S3150800197881B013680BB901B000BD136813F1FF30C5
S3150800198818BF106000D0F6E700F078FEF3E7C04607
S315080019981007002030BFFDE700B5064B94461A68C5
S315080019A881B0904201D001B000BD0348624600F0FC
S315080019B891FBF8E75C1300204813002030B50C4A61
S315080019C881B014680B4D2B6801332B6010685030B2
S315080019D802F092FAA36B102B05D01023A3630648CE
S315080019E8214600F0B3FC286800F048FE01B030BD77
S315080019F85C130020100700206413002010B5044665
S31508001A082146044800F07CFE606923699847FFF779
S31508001A18D5FFF9E76413002030B581B0DDF818C0A2
S31508001A2804462261636100235FEA9C028E46059894
S31508001A38A36105D0464940F8231001339A42FAD8DB
S31508001A480CEB000372462060C4F804C0A060E3608B
S31508001A58214604F11C0000F0F1FD3E4B04F150004C
S31508001A6819683D4A034602F0BBF80121E1633B4980
S31508001A780423A3630B880022A4F8483001330B809B
S31508001A88049BE467226484F8802084F88120C4F8DB
S31508001A988420C4F88820C4F88C20C4F89020C4F898
S31508001AA89420C4F89820C4F89C302D48036801335C
S31508001AB80360DFF8B0C0DCF80020002A45D094425D
S31508001AC80FD0D2F8A0108A4218BF0B4605D09C4200
S31508001AD807D0D3F8A0309A42F9D1C4F8A010C2F8B2
S31508001AE8A040CCF80040036813F1FF301CBF1C4B1C
S31508001AF8186027D01C48214600F074FCE3680022C9
S31508001B0823F0070EAEF1040525F00F000223A0F115
S31508001B18440140F8443C944601EB02030432302A57
S31508001B28C3F810C0F8D1114A114B4EF8042C886036
S31508001B38CC600B618D630A64C1F804C02046E16075
S31508001B4801B030BD00F09AFDD4E7C4F8A040C8E754
S31508001B58EFBEADDEE0340020692000080C0700203F
S31508001B68100700209C0A002064130020051A0008A4
S31508001B780000111130B50E4B81B01C680D4D2B684D
S31508001B8801332B60A36B23B90B48214600F0DEFB13
S31508001B98A36B43F00103A3632B6813F1FF301CBF43
S31508001BA8044B186001D001B030BD00F067FDFAE7B4
S31508001BB85C130020100700206413002010B50146A6
S31508001BC8104C236801332360C36B012B0AD00BB171
S31508001BD8013BC363236813F1FF301CBF094B186028
S31508001BE80CD010BD836B002223F00403C263836301
S31508001BF8002BEFD1044800F057FCEBE700F03EFD58
S31508001C08EFE7C046100700206413002030B50446E5
S31508001C1881B0124D2B6801332B60836B13F0030FC9
S31508001C280BD023F003038363806A20B1214600F0B2
S31508001C3815FC0023A362A36B5BB12B6813F1FF3075
S31508001C481CBF064B186001D001B030BD00F016FD68
S31508001C58FAE70348214600F027FCEEE710070020BC
S31508001C6864130020F0B5054681B00E46314F3B682F
S31508001C7801333B60846B002C57D014F0010008BF71
S31508001C88044648D12C48294600F0AEFB6B6B002B5E
S31508001C981DD06B6A2E639E4219DB2748294600F039
S31508001CA8A1FBAB6B002B1AD013F0010F2CD1234BD9
S31508001CB81A6895421BD0284600F07EFB3B6813F14C
S31508001CC8FF301CBF1B4B18601BD001B0F0BD6E62FD
S31508001CD81948294600F086FBAB6B002BE4D1164859
S31508001CE8294600F0E1FB154B1A689542E3D1144BD7
S31508001CF801221A603B6813F1FF301CBF0D4B1860B0
S31508001D08E3D100F0BBFCE0E7002CD0D020462946FA
S31508001D1800F070FBCBE7AC6A002CB3D02046294606
S31508001D2800F09CFB0023AB62ACE70348294600F0A9
S31508001D380DFBA7E710070020641300205C1300209A
S31508001D486013002010B5044621461F4800F04CFBD6
S31508001D581E48036801330360DFF874C0DCF8001016
S31508001D680A4600E01A46D2F8A0309C4220D099428A
S31508001D78F8D1036813F1FF301CBF144B186014D050
S31508001D884FF00003A4F8483004F1500002F0CCF8EC
S31508001D98E16904F11C00884205D0236A4B60226A6F
S31508001DA820621160E061204610BD00F067FCE7E795
S31508001DB8D4F8A0308C42C2F8A03004BFD4F8A030BA
S31508001DC8CCF80030D5E7C046641300201007002079
S31508001DD89C0A002010B5044621461F4800F004FB5B
S31508001DE81E48036801330360DFF874C0DCF8001086
S31508001DF80A4600E01A46D2F8A0309C4220D09942FA
S31508001E08F8D1036813F1FF301CBF144B186014D0BF
S31508001E184FF00003A4F8483004F1500002F084F8A3
S31508001E28E16904F11C00884205D0236A4B60226ADE
S31508001E3820621160E061204610BD00F01FFCE7E74C
S31508001E48D4F8A0308C42C2F8A03004BFD4F8A03029
S31508001E58CCF80030D5E7C0466413002010070020E8
S31508001E689C0A002030B581B0DDF818C00446226106
S31508001E78636100235FEA9C028E460598A36105D034
S31508001E88464940F8231001339A42FAD80CEB000366
S31508001E9872462060C4F804C0A060E360214604F1D5
S31508001EA81C0000F0CBFB3E4B04F1500019683D4A74
S31508001EB8034601F095FE0121E1633B490423A36328
S31508001EC80B880022A4F8483001330B80049BE4678A
S31508001ED8226484F8802084F88120C4F88420C4F811
S31508001EE88820C4F88C20C4F89020C4F89420C4F834
S31508001EF89820C4F89C302D48036801330360DFF83E
S31508001F08B0C0DCF80020002A45D094420FD0D2F899
S31508001F18A0108A4218BF0B4605D09C4207D0D3F8B2
S31508001F28A0309A42F9D1C4F8A010C2F8A040CCF85B
S31508001F380040036813F1FF301CBF1C4B186027D0FC
S31508001F481C48214600F04EFAE368002223F0070EE3
S31508001F58AEF1040525F00F000223A0F1440140F86C
S31508001F68443C944601EB02030432302AC3F810C0F5
S31508001F78F8D1114A114B4EF8042C8860CC600B61D5
S31508001F888D630A64C1F804C02046E16001B030BD1B
S31508001F9800F074FBD4E7C4F8A040C8E7EFBEADDE8E
S31508001FA8E0340020692000080C07002010070020EC
S31508001FB89C0A002064130020051A00080000111165
S31508001FC80F4B30B5C3EB00030E4CDB1004FB03F4D0
S31508001FD80D4A0E4B85B0E1025B1800924FF4006279
S31508001FE80546019302921F210023094AFFF73AFF83
S31508001FF808482946224600F089FA284605B030BD21
S31508002008A00A00203DCFF33CB4540008480B002032
S315080020189D1900086413002000B5012881B006D070
S3150800202818B942F65C33994209D001B000BD42F6A8
S315080020385C339942F9D10448FFF7C2FFF5E702482D
S31508002048FFF7C8FEF1E7C046A00A002000B5012040
S3150800205881B042F65C31FFF7DFFF01B000BDC0462C
S3150800206810B5C86A194C23680133236090F8803084
S31508002078072B1AD890F980200123934013F0F3020E
S3150800208808D0236813F1FF3018BF206016D100F076
S31508002098F5FA13E013F0080111D113F0040F04D070
S315080020A8072380F8801080F88130FFF7AFFD236892
S315080020B813F1FF301CBF054B1860E8D010BD032389
S315080020C880F8802080F88130EFE7C04610070020A6
S315080020D87047C04600B5034681B04068D3F800C0CB
S315080020E8E04701B000BDC046024B034A00211A600A
S315080020F85960704748130020D920000800B5054BD9
S3150800210884460A4681B018686146FFF745FC01B05F
S3150800211800BDC0465C130020016042600199009A20
S315080021280361002343618260C16083617047C046CA
S31508002138D0F800C00849836851F82C20934209D181
S31508002148064B074A41F82C30064B002143F82C1059
S3150800215842F82C107047C046743A0020E10D000872
S31508002168B43C0020943B0020F0B54FF0100C81B029
S31508002178EFF31185614681F311881248124A002344
S31508002188D0F800E01E4603606746136005E0EFF3E3
S315080021981185394681F31188A646DEF81410DEF84B
S315080021A81840CEF81460CEF8186085F31188DEF862
S315080021B80000DEF81020DEF80C309847002CE6D12F
S315080021C801B0F0BD541300205813002000B581B0A3
S315080021D8FFF7CAFF01B000BD014B00DF70470000DA
S315080021E8C30000081023EFF3118C194681F31188F0
S315080021F84269531C436122B9054B1A6818601AB11B
S3150800220890618CF311887047024B1860F9E7C0464D
S315080022185813002054130020014B00221A607047F7
S315080022285013002000B581B001F05CF801B000BD7C
S3150800223810B51024EFF31184214681F3118800F0B4
S31508002248E9FF84F3118810BD10B504466168006873
S3150800225801F086F82068094951F8203051F82020FD
S31508002268074B9A4209D1A368064A41F820302169E2
S31508002278054B43F8201042F8204010BD743A002058
S31508002288E10D0008B43C0020943B002030B50B1E35
S3150800229818BF012313EA500381B08C4615460DD0A2
S315080022A81023EFF31180194681F31188DCF81420FE
S315080022B8531CCCF8143082B180F311880E4C23686D
S315080022C89D610E4A136813F1FF3018BF10600CD0D1
S315080022D822680023936101B030BD094B1A68C3F818
S315080022E800C02AB1C2F818C0E6E700F0C7F9EFE758
S315080022F8044BC3F800C0DFE75C1300201007002072
S315080023085813002054130020074B01221A60002393
S31508002318021D1946D1500433802BFBD1034B0122E9
S3150800232801601A607047C046100700206013002035
S315080023380268C2F100031340B3FA83F3C3F11F031B
S315080023489B00C018406800B11C38704770B44E6AC4
S3150800235801F11C04B3008C4600EB030105464868E6
S31508002368844218D0DCF81C30DCF820205A60DCF8E7
S315080023782010CCF820400B60CCF81C4018B170BC73
S31508002388704700234B600122B2402B686FEA0202AD
S3150800239813402B60F3E7DCF81C008442F1D0DCF824
S315080023A820304360DCF82020CCF820401060CCF8B8
S315080023B81C404860E2E7C046DFF820C0426ADCF8FD
S315080023C80030596A914203DD054B01221A607047AD
S315080023D8DCF800309A6B002AF9D0F5E75C13002080
S315080023E8601300207047C0467047C04640600060CA
S315080023F88160704710B40446084681B101F11C0C87
S31508002408216881B14B68CCF80010CCF804304A68CA
S31508002418C1F804C0C2F800C0846210BC70478C4674
S3150800242821680029EED1C4F800C0F5E7844600689B
S3150800243870B1016888420CD043684B6042684060B6
S3150800244811600060CCF800101C3801D000238362A4
S3150800245870470023CCF80030F6E7C04610B40446A7
S31508002468236801F11C00002298428C468A620AD029
S31508002478CB690A6A5A60096ACCF820000B60CCF85E
S315080024881C0010BC7047C969884217BFDCF82030A1
S3150800249822604B60DCF820201FBFCCF820001160B2
S315080024A8CCF81C002160ECE770B50546886A0C462E
S315080024B84E6A08B1FFF7D2FFB30005EB030CDCF848
S315080024C80410A1B14B6804F11C0043604A68E16135
S315080024D8486010600B48626A0368596A914202DCD0
S315080024E803689A6B12B1084B01221A6070BD012263
S315080024F8B2402B6804F11C0013432B60CCF8040087
S31508002508E8E7C0465C1300206013002000B5044BBA
S3150800251881B043F822100846FFF750FB01B000BD0A
S315080025285C130020012810B51CD038B942F6F823E8
S31508002538994204BF1148A0F1800C10D010BD0C6850
S315080025488C4217D04B6863604A6849601460096012
S3150800255821460029F3D140F8041D6045EED050F80D
S31508002568041CF6E742F6F8239942E7D10448FFF730
S31508002578CBFEE3E700242146EBE7C046E813002034
S315080025886413002000B5012081B042F6F821FFF750
S31508002598C9FF01B000BDC04600B5026981B032B9AD
S315080025A8836923B14169836882618B4201DB01B083
S315080025B800BD1C38FFF756FBF9E7C04600B581B0E1
S315080025C8FFF7EAFF01B000BD00B581B0FFF7E4FFE9
S315080025D801B000BD70B5866805468E4200DC70BD40
S315080025E8846900238361A0F11C00FFF73BFB04B94B
S315080025F86E610123AB61F2E700B5002281B0FFF7EF
S31508002608E9FF01B000BDC04600B50A4681B0496A6F
S31508002618FFF7E0FF01B000BD00B5136881B08C462E
S315080026281BB1496A6246FFF7D5FF01B000BDC0462F
S3150800263800B581B0FFF7F0FF01B000BD10B511462F
S315080026480446FFF7D3FE0023E3602361A36120460F
S3150800265810BDC0460548FFF76BFE054B054A002125
S31508002668196010600C3000F08DFFC0466413002016
S31508002678601300205C130020FFF7ECFF2DE9F041FA
S315080026880546194EDFF86480194F20B9194B1A68A0
S315080026980AB1FFF7A1FD3468A36BDBB11648FFF74B
S315080026A847FEA04209D0154A0C30136804F10C01FC
S315080026B80133136000F05CFF34600023C8F800306B
S315080026C875B90B493D600B4B1A6852B10B68013353
S315080026D80B60DBE7D8F80030002BDFD1002DF0D0EF
S315080026E83D60BDE8F081C0465C13002060130020F9
S315080026F8100700205413002064130020E813002054
S3150800270830B50D4B0D4A00200D4C18601160236832
S3150800271881B073B1254601E0236853B1236813F1E4
S31508002728FF3018BF2860F7D1FFF7A8FF2368002BEA
S31508002738F4D101B030BDC046601300205C130020F8
S315080027481007002000230122836003704360027388
S315080027587047C04610B400240FE0D1F800C08C4575
S3150800276817BF4B688460CCF804304A681FBF4960B5
S31508002778C2F800C00960C0F808C081680029ECD111
S3150800278810BC704700234360016070472DE9F04F7D
S31508002798DFF8F08081B00446D8F800503A4F3B6815
S315080027A801333B60027B22B1EB6A0133022AEB62F2
S315080027B856D004F1080A4FF0010B4FF0000901261C
S315080027C8237873B976B10123237065603B6813F1E2
S315080027D8FF301CBF2C4B186019D0304601B0BDE835
S315080027E8F08FBEB9227B002AF0D0EB6A013B012A9A
S315080027F8EB6241D0022AE9D105F11C00FFF7DEFE9B
S315080028083B6813F1FF301CBF1F4B1860E5D1FFF773
S3150800281835FFE2E7D8F80030D8F8002083F880B00A
S3150800282882F88190FFF7A6F950462946FFF7E2FD98
S31508002838237B012B04D1606829461C30FFF7E4FE88
S315080028483868FFF71BFF95F88130042BB8D3052B9A
S3150800285804D9062BB4D1FFF7B1F8B0E70026AFE7DD
S3150800286805F11C002169FFF7C7FE04F1080A4FF0B5
S31508002878010B4FF00009A2E705F11C00FFF7A4FEBB
S31508002888227BB7E75C1300201007002030B5024604
S3150800289881B0174D2B6801332B600378002B24D1A0
S315080028A8144B117B186801241470506051B901241F
S315080028B82B6813F1FF301CBF0D4B186012D0204649
S315080028C801B030BDC36A1B190229C362EFD11C3097
S315080028D81169FFF791FE2B6813F1FF301CBF044BF3
S315080028E81860ECD1FFF7CAFEE9E70024E0E7C0461E
S315080028F8100700205C1300202DE9F0410446DFF894
S315080029084880D8F800300133C8F80030436873B1F6
S31508002918051D002707262846FFF788FD80F88070DA
S3150800292880F88160FFF772F96368002BF3D1D8F84D
S31508002938003013F1FF301CBF034B186001D0BDE807
S31508002948F081FFF79BFEFAE710070020F0B504466A
S3150800295881B0224F3B6801333B6083688BB100F135
S3150800296808063046FFF762FD237B0546012B2DD066
S315080029780023072285F8803085F881202846FFF746
S3150800298845F9227B3AB16068C36A013B012AC362EA
S3150800299815D0022A0ED00023237063603B6813F112
S315080029A8FF301CBF0D4B186001D001B0F0BDFFF712
S315080029B865FEFAE760681C30FFF700FEEBE71C3097
S315080029C8FFF702FE227B022AE5D1F3E700F11C0095
S315080029D861683246FFF72CFECAE7C0461007002092
S315080029E82DE9F0451D4C81B006460F46D4F80080FF
S315080029F81B4D2B6801332B600846FFF7A7FF236892
S31508002A0822684FF0010A002483F880A082F88140E2
S31508002A180436FFF7AFF830464146FFF7EBFC28685F
S31508002A280138FFF72BFE98F88130042B09D20124C8
S31508002A383846FFF7ABFE0028FAD0204601B0BDE8B5
S31508002A48F085052BF4D9062BF1D1FEF7B7FF3846E2
S31508002A585446FFF79BFE0028EAD0EEE75C130020F1
S31508002A681007002000B5012885B006D018B94DF61C
S31508002A78C023994214D005B000BD4DF6C02399422B
S31508002A88F9D1094B094A00934FF40053019202936E
S31508002A980A21074AA3F500530648FEF7BDFFEAE7E9
S31508002AA80448FFF74FF9E6E7C054000898140020D1
S31508002AB819410008F013002000B5012081B04DF631
S31508002AC8C021FFF7CFFF01B000BDC04610B5054CC1
S31508002AD8216800F0D1FA002803DB21680A2000F0F3
S31508002AE897FA10BDC854000830B5012885B00546C0
S31508002AF806D018B94DF6C12399421DD005B030BD88
S31508002B084DF6C1239942F9D10022134629461B4896
S31508002B1801F096FC1A4C01466FF003024FF48070D8
S31508002B280023019202902A4620460093039300F058
S31508002B38EBF9144B5C60E1E7114C134BA268236070
S31508002B486AB104F13000FFF721FE40B1A3681BB152
S31508002B58204600F04FF8A5600C48FFF7F7FE0B482B
S31508002B68FFF7F8FD606910B1054B1A6912B9084BE9
S31508002B782360C3E701F0E8F9F9E7C04624530008DB
S31508002B8898340020BC390020D8540008C8340020DE
S31508002B98F054000800B5012081B04DF6C121FFF7B1
S31508002BA8A3FF01B000BDC046014B03607047C0468D
S31508002BB8F05400082620704726207047034B10B5A6
S31508002BC80360044600F0E8FF204610BDF0540008EC
S31508002BD830B500F13004054681B02046FFF7D6FD2A
S31508002BE818B90925284601B030BD20466D68FFF793
S31508002BF8ADFEF7E730B590F8283083B0DA09044611
S31508002C0817D113F0040F10D0C369016A8B4210D08C
S31508002C185B1A02AA42F8043D8068FEF751F9054690
S31508002C2848B163692362E36100E01625284603B0C4
S31508002C3830BD0025FAE7A0684FF481712A462B466D
S31508002C48FEF76AF9EDE7C04630B5154B826881B0DC
S31508002C5804460360F2B100F130052846FFF796FDF1
S31508002C6848B1A36823B12046FFF7C4FF0023A36031
S31508002C782846FFF76BFE2846FFF76CFD606908B122
S31508002C88236953B9074B2046236000F085FF204681
S31508002C9801B030BD00F13005EDE701F055F9F1E76F
S31508002CA8D8540008F05400082DE9F047984600F172
S31508002CB830090023054682B0C8F8003048460E4653
S31508002CC81746FFF763FD002872D095F8282012F0FA
S31508002CD8040F65D0D3091EBF6B692B62EB6102F03E
S31508002CE87F03DAB212F0200F85F8283062D0002F59
S31508002CF879D06B694FF0000AE869002B36D0AA69C3
S31508002D089B18C0EB0302984214BF53464AF00103C6
S31508002D18002B37D195F82830BA4234BF14463C46BA
S31508002D2813F0400F0DD064B133780A2B62D0002215
S31508002D3802E0B35C0A2B4CD00132A242F9D3944282
S31508002D4847D13146224600F0CFFED8F80030E86968
S31508002D581B19C8F80030EB6A00191B193F1BE861F4
S31508002D68EB623DD06B693619002BC8D14FF0FF329C
S31508002D789B18C0EB0302984214BF53464AF0010356
S31508002D88002BC7D02846FFF735FF6B690446002B8A
S31508002D9823D0AA69E869C4B99B18C0EB0302B9E746
S31508002DA84846FFF7D3FD1624204602B0BDE8F0874B
S31508002DB80924F9E702AA42F8047DA8683146FEF70D
S31508002DC87FF8019B0446C8F800304846FFF7BEFD61
S31508002DD8EAE7541C4FF0010AB3E74FF0FF32D9E788
S31508002DE8BAF1000F01D10024EFE72846FFF702FFE2
S31508002DF80446EAE701244FF0010AA2E710B41C4684
S31508002E080023DDF808C081608362032A32D8DFE828
S31508002E1802F03D35020290F8283043F00203DAB290
S31508002E2842F0040280F82820D3B203F07F0380F822
S31508002E382830DBB213F0020F32D1019923F00803C8
S31508002E48002914BF082200221343DBB2002223F00C
S31508002E580103944218BF43F001031CF1040F4260B2
S31508002E6880F82830C26244D01CF1020F2AD01CF11F
S31508002E78080F1DD01623436010BC704790F82830F9
S31508002E8843F0040380F82830DBB2CEE790F8283000
S31508002E9843F0020380F82830DBB213F0040FC4D1DC
S31508002EA86FEA43636FEA536380F82830DBB2C4E7F6
S31508002EB890F8283023F04003DAB222F0200280F88E
S31508002EC82820D9E790F8283043F02003DAB222F010
S31508002ED8400280F8282090F8283013F0200FCBD02D
S31508002EE843691BB18369B3F1FF3FC5D10C2343601E
S31508002EF8C2E790F8283043F02003DAB242F04002DD
S31508002F0880F82820E7E7C0462DE9704785B00F9E68
S31508002F180E9D9246124A9946002304460361436168
S31508002F288361C3610362884602602946324600F116
S31508002F38100000F045F804F13000FFF703FC0C9B7D
S31508002F480D9A009301922046414652464B460295F1
S31508002F580396FFF753FF204605B0BDE87087C046BD
S31508002F68D854000830B5144B826881B0044603600B
S31508002F78DAB100F130052846FFF708FC48B1A3681E
S31508002F8823B12046FFF736FE0023A3602846FFF73D
S31508002F98DDFC2846FFF7DEFB606908B123693BB903
S31508002FA8064B2046236001B030BD00F13005F0E736
S31508002FB800F0CAFFF4E7C046D8540008F0540008E1
S31508002FC870B504460E46154672B1036833B965608E
S31508002FD86368A6602361E360002070BD406800F05E
S31508002FE8B3FF00232360F2E783688B42F0D00846D4
S31508002FF801F008F8054648B123681BB9012365603E
S315080030082360E5E7606800F09FFFF7E70C20E4E730
S31508003018F0B583B00D46C6B202A901F8016D2B6852
S3150800302828469C6801226B46A047044610B93046D4
S3150800303803B0F0BD05F130073846FFF7A7FB40B9DE
S3150800304800F086F809230646036034604FF0FF301F
S31508003058EEE700F07DF86C6004606B680646C82BDE
S3150800306808BF95F82830384604BF43F0010385F8A9
S315080030782830FFF76BFCE8E7F0B583B00E4605463F
S3150800308800F02EF8336802469C683046294601AB9C
S31508003098A047044610B9019803B0F0BD06F13007F9
S315080030A83846FFF773FB40B900F052F8092305467E
S315080030B803602C604FF0FF30EEE700F049F87460C3
S315080030C8046073680546C82B08BF96F82830384642
S315080030D804BF43F0010386F82830FFF737FCE8E712
S315080030E810F0030F30B4044609D0007828B12046FA
S315080030F810F8013F002BFBD1001B30BC7047124B60
S3150800310801681D68114AC5EB010384466FEA010187
S3150800311810680B40034208D15CF8042F6FEA0203D3
S3150800312800EA0303521B1342F6D09CF800306046A7
S31508003138002BE1D010F8013F002BDDD010F8013F35
S31508003148002BF7D1D8E7C0460055000808550008EF
S31508003158024B1A6818688C307047C0465C13002002
S31508003168411E3B293DD8284A4B091A4401F01F013C
S3150800317801238B4092001360831E452B30D8DFE865
S3150800318803F03D2F2F2F2F3B3B3B3B3B2F2F2F2F5A
S315080031982F2F2F2F2F2F2F2F2F2F2F2F2F2F2F2F29
S315080031A82F2F2F2F2F2F2F2F2F2F40382F2F2F2FFF
S315080031B82F2F2F2F2F2F2F2F2F2F2F2F2F2323232D
S315080031C823232323232323233838002808DB012332
S315080031D883406FEA03000D4A136800EA0303136085
S315080031E870470028C8D10A4A136823F002031360F7
S315080031F8F6E76FF48020EEE70738E6E76FF48030E5
S31508003208E9E76FF40030E6E7603800380004014063
S3150800321810E000E0411E3B2940D82D4A4B091A44C4
S3150800322801F01F0101238B4092001360831E452B72
S3150800323833D8DFE803F046323232323B3B3B3B3B7E
S315080032483232323232323232323232323232323248
S315080032583232323232323232323232323232493D16
S315080032683232323232323232323232323232323228
S31508003278324040404040232323232323154B4FF451
S31508003288807238381A60002807DB012313FA00F021
S31508003298114A136840EA0303136070470028C5D12A
S315080032A80E4A136843F002031360F6E70738EAE79D
S315080032B84FF48020ECE70A4B4FF4000238381A60BE
S315080032C8E1E74FF48030E3E74FF40030E0E7C04623
S315080032D84038003804E100E00004014010E000E04E
S315080032E800E100E0831E452B2CD8DFE803F02F2BDE
S315080032F82B2B2B32323232322B2B2B2B2B2B2B2BE5
S315080033082B2B2B2B2B2B2B2B2B2B2B2B2B2B2B2BF7
S315080033182B2B2B2B2B2B342C2B2B2B2B2B2B2B2BDD
S315080033282B2B2B2B2B2B2B2B2B232323232323230F
S31508003338232323233838002804DB012313FA00F053
S31508003348064B186070474FF48020F9E74FF4803031
S31508003358F6E70738EFE74FF40030F1E714040140C1
S31508003368431E1031FF2928BFFF213B2B9FBF074B60
S31508003378CAB2C3181A7007D930B9054A136823F0B0
S315080033887F4343EA016313607047C046FFE300E0E2
S3150800339820ED00E030B5064B064D81B0AB4205D0AE
S315080033A81C4654F8043B9847AC42FAD101B030BDE4
S315080033B8E80700202008002000207047064A00B5C4
S315080033C8136800200133136081B001460246FEF7F0
S315080033D85DFF01B000BDC0461007002030B50E4B92
S315080033E80E4A53F8204081B052F820100546A047E7
S315080033F810F0020F01D101B030BD094B53F8250072
S31508003408FEF7F0FE074B1A68002AF4D1064A136835
S3150800341843F080531360EEE7743A0020943B00208B
S31508003428B43C00201007002004ED00E000B5014672
S3150800343881B04068FEF762FE01B000BD00B581B0F4
S3150800344800F0CCFA354B3649022241F822300132CF
S315080034580F2A3348F9D1334BDFF8CCC0C0F82CC053
S315080034688363324B41F8223001325A2A2C48F9D163
S315080034782F4A30494FF000531360C16200DF2E49C6
S31508003488C0F82CC0DFF8B4C0614508D22C48002221
S3150800349883588B50043201EB02036345F8D3294B52
S315080034A829498B4204D2002243F8042B8B42FBD3CA
S315080034B8264B00221A604FF07F410433DFF890C08C
S315080034C82448196002F57F0204331A606FF07F01F9
S315080034D8C0F800C00122204B40F822C0134401322C
S315080034E8482A1970F7D11D4A136843F4E023136074
S315080034F800F0F8F900F0E6FA194A1A491368A1FB28
S315080035080323194A9B09013B1360184B01211960CB
S31508003518FFF740FF00F0D8FAFEE7C0464300000868
S315080035280000002089000008C70000087500000888
S3150800353808ED00E025000008000400202008002007
S315080035482056000820080020E83D002018ED00E075
S31508003558E10D0008743A0020FFE300E024ED00E0DE
S31508003568E43D0020D34D621014E000E010E000E0CE
S315080035782DE9FF5F4FF00202EFF311836C461CB486
S31508003588C1F800D0D0F800D01CBC83F31188BDE878
S31508003598FF9F6B4680E8F85F4FF00000704790E899
S315080035A8F85F9D46084670474268136813F0800F0F
S315080035B8FBD051607047C0464268136813F0200F65
S315080035C8FBD05068C0B2704730B405460C46104662
S315080035D86AB10022A15CD5F804C0DCF8003013F003
S315080035E8800FFAD001329042CCF80410F2D130BCE0
S315080035F87047C04610B40446084611466AB1002208
S31508003608D4F804C0DCF8003013F0200FFAD0DCF840
S315080036180430835401329142F2D110BC7047C04637
S31508003628F0B542680F46136881B013F0200F0546B7
S31508003638816813D14A00CB00D2181CBF14460A4E1B
S315080036480AD0B36C642098476A68136813F0200F89
S3150800365804D114F1FF34F4D1002002E053680120A4
S315080036683B7001B0F0BDC046000200202DE9F04FBE
S31508003678234A81B0146814B101B0BDE8F08F214F10
S31508003688012313604FF0FF307B6B98471E4D834626
S3150800369826464FF00C094FF4E13842F20C0AE8685E
S315080036A82C6800F097F8286900F094F8002222613F
S315080036B82046C4F80C904146C5F8148000F0C4F8B2
S315080036C8C4F80CA07A6B304690477B692A1F1A60A3
S315080036D80E4A01365A600E4A20359A600D4A022E5D
S315080036E8DA600D4A1A610D4A5A610D4A9A610D4AFD
S315080036F8DA61D4D1034B58465A6B9047BCE7C046A3
S31508003708DC3400200002002018070020D135000804
S31508003718FD350008B1350008C135000869370008C5
S31508003728313700082936000800230B6030B542688F
S3150800373883B01368044613F0200F0D4609D0536862
S3150800374802A800F8013D0121FDF732FB08B1012363
S315080037582B60E068FFF7C6FD012003B030BDC04600
S315080037680EB470B581B09DF8143004464668072B28
S315080037780AD8DFE803F004120909141F2D10069960
S315080037888161304600F060F80025284601B0BDE89A
S31508003798704003B07047069B8360A569F5E7002368
S315080037A8C569C361C068FFF7DBFCF36823F020032B
S315080037B8F360EAE70123C361C068FFF793FDE06891
S315080037C8FFF728FDF368002543F02003F360DCE7DC
S315080037D8C568DAE7B0F1FF3F70B484461DD000F437
S315080037E87F4303F180454FEA104303F01F06072E6F
S315080037F805F58435DCBF2C46324610DC92000F23CB
S3150800380893400CF00F0010FA02F221686FEA0303DE
S315080038180B4013430828236005D070BC70472C1D3D
S31508003828A6F10802EAE71CF0100FEA6804D001239B
S31508003838B3401343EB60F0E70123B3406FEA030391
S315080038481340EB60E9E7C046154A164B30B40546FF
S315080038589542186808BF144B144C08BF1868C2006C
S3150800386843019B1A1B188A00B3FBF2F3A4FB032C2B
S315080038784FEA5C1C4FEA0C1C4FEA1C129100120115
S315080038888918880009185B1A1B013233A4FB03231D
S315080038985B0903F00F0343EA0C03AB6030BC7047BF
S315080038A800380140DC3D0020E03D00201F85EB5133
S315080038B80A4A0B49136800B50A6881B0134023F011
S315080038C81F03C3F100001840B0FA80F0C0F1570092
S315080038D8FFF784FD002001B000BDC0460004014082
S315080038E8140401402A4B2B4A2B494FF0FF30186025
S315080038F8106001220A600B6800B503F4A0230B6068
S315080039080A6881B042F480320A600B461968224870
S3150800391811F4003FFAD0214A214B41F08071136017
S3150800392801600246136813F0007FFBD01D4A1B4B43
S315080039381D481A601D4B1E4A186010601D491E4B0B
S315080039481E4A196010601E4B1E491F481960DFF889
S315080039587CC0036E634512D0D0F8A4309C450AD1C2
S31508003968194A1B4B0021C2F8A4301A4B1A4AC3F845
S31508003978A410C2F8A410FDF7B9F901B000BD144B9C
S31508003988154A0366134B002119661166E4E7C04613
S31508003998181002401C100240001002400410024091
S315080039A800041D0002041D0000A24A04D83D002098
S315080039B8D43D002000512502DC3D0020E03D0020D2
S315080039C8E43D002040548900743A0020E10D0008BF
S315080039D8B9380008943B0020B43C00202B4B4FF420
S315080039E88A721A604FF4FE7104331960DFF8A0C0B2
S315080039F8284B2948CCF80030284B4FF0883203600A
S31508003A082749284BCCF800200260274A1960043356
S31508003A181A6014210833254A196003F57D73244969
S31508003A281A600433196042F23E0208331A604FF0EE
S31508003A38443103F57D731F4A196003F580631160E5
S31508003A48196002F5806203F580631160196002F552
S31508003A58806203F580631160196002F58062164B6F
S31508003A68116041F25900154A186004331A6041F288
S31508003A781101043319604FF40072043310491A60AF
S31508003A880B6843F012030B607047C04614100240D7
S31508003A9800080140338BB3BF04080140B338838854
S31508003AA8004338FF000C014033FFB3BF3088383372
S31508003AB833FB8B4404140140080000A005070010D6
S31508003AC8002002407047C04600B581B000F006F8ED
S31508003AD800F006F800F006F8FEF7CEFD7047C04677
S31508003AE87047C0467047C046032A70B406460D4656
S31508003AF814460DD941EA000313F0030F0BD0002230
S31508003B08AB5CB35401329442FAD1304670BC704764
S31508003B18002AF4D1F9E70F2A844682BF0146AC4643
S31508003B2810461ED9DCF8003010380B60DCF8042083
S31508003B384A60DCF808308B60DCF80C200CF1100CB5
S31508003B48CA6010310F28EDD8A4F1100303F00F044A
S31508003B5823F00F031033032C05EB030106EB030CC4
S31508003B6810D900228B584CF802300432C2EB0403F1
S31508003B78032BF7D8231F03F0030423F003030433A6
S31508003B88C9189C44002CC0D000228B5C0CF8023063
S31508003B980132A242F9D1B8E77047C0468446DCF834
S31508003BA800300846994209D00B684A685A6049683D
S31508003BB840600B6000600023836270470029FAD0D2
S31508003BC80968884208D043684B60426840601160BB
S31508003BD80060CCF80010EEE70023CCF80030EAE7DE
S31508003BE810B4C2600024036100220023406000600C
S31508003BF881608361C46103624462826210BC704753
S31508003C082DE9F04300F1200560CD55EA060381B099
S31508003C18074628D0836807F1180898E8000303F1CF
S31508003C28080003C8401941EB0601B0EB080061EB30
S31508003C380901B1421AD94FF0FF33C0184FF0FF34C3
S31508003C4841EB040133462A4600F0D8FE00FB06F38A
S31508003C5805FB0133A0FB050110EB0800194441EBED
S31508003C680901B861F96101B0BDE8F083FBD1A84242
S31508003C78F9D9E0E7012370B50D468B62EB6900F1C7
S31508003C88080106C99342064617D822D02969EB685F
S31508003C982846984705F1200106C951EA020315D0B6
S31508003CA8AB6A9BB105F1180318CB5B1844EB020401
S31508003CB8AB61EC612846FFF7A3FF316869B14B6829
S31508003CC829606B604A684D60156070BD0023AB6259
S31508003CD8FBE7AB698B42F0D8D8E73560F5E7C0460D
S31508003CE800B5044B002081B01B68FEF79BFA032039
S31508003CF801B000BD10E000E02DE9F0411A4B00269E
S31508003D085A68196882610027184B194A8660C7607D
S31508003D1882B0044600254FF0010800F11C0605602C
S31508003D28C0F810804161009301922946E022234693
S31508003D383046FEF7F1F90F4A0F4913680F4AA1FBF7
S31508003D4803730F499B09013B13603046C1F800808D
S31508003D58FEF77AFA2846FEF76BFA0A4B20461C60E5
S31508003D6802B0BDE8F081C04654070020E93C0008C7
S31508003D78F13E0008E43D0020D34D621014E000E04F
S31508003D8810E000E0E0340020012810B5044605D00C
S31508003D9818B943F2B063994208D010BD43F2B0632C
S31508003DA89942FAD11148FFF7A7FFF6E71048FEF738
S31508003DB8BFF9DFF838E0DEF8001070460029ECD0C5
S31508003DC8D1F800C08C4517BF4B680460CCF804309E
S31508003DD84A681FBF4960C2F800C00960C0F800C039
S31508003DE8DEF800100029EBD1D7E7C046E8340020F2
S31508003DF80435002000B5012081B043F2B061FFF711
S31508003E08C3FF01B000BDC0462DE9F04707468846FE
S31508003E1801B3344E4FF00009B246336801333360B4
S31508003E283B6907F1080106C91B464FF000045B18F1
S31508003E3844EB0204BB60FC60D7F800C065465DB970
S31508003E48336813F1FF3018BFCAF800002BD018F1F1
S31508003E58FF38E2D1BDE8F087EB6907F1080106C922
S31508003E689342286819D815D065452CD06B684360E5
S31508003E786A682B686D6013602D6005F1200106C914
S31508003E8851EA020308BFAB6210D12969EB682846D4
S31508003E989847D1E7AB698B42E6D98445D0D08542A5
S31508003EA8CED00546CBE7FEF7E9FBD0E705F11803C0
S31508003EB818CB5B1844EB0204AB61EC61384629461B
S31508003EC8FFF7D8FEE1E7854217BF6B68C7F8009089
S31508003ED843606A681FBF2B686D6013602D6018BF42
S31508003EE83860CAE71007002000B5104681B0FFF70A
S31508003EF88BFF01B000BDC04610B50146094C2368C2
S31508003F0801332360836A13B18068FFF747FE236885
S31508003F1813F1FF301CBF034B186000D010BDFEF725
S31508003F28ADFBFBE71007002010B50446FFF7E4FFD2
S31508003F3821688C4205D063684B60626864601160CA
S31508003F482460204610BDC0462DE9F04F014683B0CF
S31508003F5800284CD0294B1F68294A13680133136077
S31508003F680022384600F05CFCD7F81034002B36D00F
S31508003F7800230DF1080A4AF8043D07F582689B46AE
S31508003F884FF007090AE084F880B084F88190204643
S31508003F98FDF73CFED7F8103475609BB14046FEF72E
S31508003FA845FA466C04463168384600F081FA0546F3
S31508003FB80028E8D150462146FEF71CFAD7F81034EF
S31508003FC8002BEBD1019B53B101AC2046FEF72EFA24
S31508003FD801464046FEF70EFA019B002BF5D1084A22
S31508003FE8136813F1FF301CBF054B186002D003B0E5
S31508003FF8BDE8F08FFEF742FBF9E7C0465C070020EC
S315080040081007002030B50B4B014681B018680A4CDA
S3150800401823680133236000F04BFA0546236813F139
S31508004028FF3018BF206002D0284601B030BDFEF721
S3150800403825FBF9E75C07002010070020F0B50128E2
S3150800404881B006D018B944F6BC53994213D001B0CA
S31508004058F0BD44F6BC539942F9D12449244CC1F120
S315080040680052002302F57042204600F0F5F90023B5
S31508004078C4F81034EBE71F4F3B6801333B601C4E0E
S31508004088D6F8103473B1054605241B48FEF7CEF951
S3150800409880F8805080F88140FDF7B8FDD6F81034CE
S315080040A8002BF2D13B6813F1FF301CBF114B186087
S315080040B819D0D6F81014DFF838C000240029C6D05D
S315080040C80868884217BF4B68CCF8104443604A68AA
S315080040D81FBF496010600960CCF81004D6F81014A0
S315080040E80029EDD1B3E7FEF7C9FAE2E7E83D002073
S315080040F820350020100700203039002000B501209F
S3150800410881B044F6BC51FFF799FF01B000BDC0461F
S3150800411800B5064B83B093E803008DE803006946AB
S315080041280120FBF7D3FF00F045FCC04610550008F0
S315080041382DE9F04F00238BB0DFF8F4B081460293DF
S3150800414803930493059306930793089309939A464A
S3150800415801931F461C46D4F1010338BF0023072FD5
S315080041688CBF002203F00102A2B14FEA87080AAA07
S3150800417802EB080454F8205C9DB100240137D4F1F9
S31508004188010338BF0023072F8CBF002203F0010262
S31508004198002AEAD113EA0A0F45D09246174614466A
S315080041A8D9E72448FEF7F2FA00283BD05BF82760DF
S315080041B8B14514BF00230123002E14BF184643F047
S315080041C8010040B1012344F8203C2C461948FEF763
S315080041D8BDFB0137D3E796F82830DB090BD1019ADE
S315080041E85AB906F130052846FEF750FB60B94FF074
S315080041F8010ACDF804A00446E8E706F13005284682
S31508004208FEF7C4FA0028EED03046FEF7F3FC04465B
S315080042182846FEF79BFB0AAA02EB0803012243F885
S31508004228202CD3E7042420460BB0BDE8F08FC046FF
S31508004238BC390020DC39002030B5044681B0C0B14D
S3150800424800F130052846FEF7A1FA38B90924FEF721
S315080042587FFF04604FF0FF3001B030BD2046FEF7FF
S31508004268C9FC04462846FEF771FB002CEFD1204608
S31508004278F2E7FFF75DFF0446F7E7C04630B50128C1
S3150800428885B0054606D018B94DF6C22399421BD003
S3150800429805B030BD4DF6C2239942F9D1002213461E
S315080042A829461A4800F0CCF8194C6FF00702002383
S315080042B80146019220462A46009302930393FEF785
S315080042C823FE144B9C60E3E7114C134BA26823604A
S315080042D86AB104F13000FEF759FA40B1A3681BB178
S315080042E82046FEF787FCA5600C48FEF72FFB0B480F
S315080042F8FEF730FA606910B1054B1A6912B9084B0E
S315080043082360C5E7FFF720FEF9E7C04624530008EF
S3150800431834390020BC390020D854000864390020F4
S31508004328F054000800B5012081B04DF6C221FFF708
S31508004338A5FF01B000BDC04630B5012885B00446C2
S3150800434806D018B94DF6C02399421DD005B030BD20
S315080043584DF6C0239942F9D100210A460B461B4857
S3150800436800F06EF81A4C002201466FF003034FF46A
S315080043788070019302901346204600920392FEF736
S31508004388C3FD144B1C60E1E7114D134BAA682B605B
S315080043986AB105F13000FEF7F9F940B1AB681BB10F
S315080043A82846FEF727FCAC600C48FEF7CFFA0B4800
S315080043B8FEF7D0F9686910B1054B1A6912B9084BA6
S315080043C82B60C3E7FFF7C0FDF9E7C046245300088A
S315080043D878390020BC390020D8540008A8390020AC
S315080043E8F054000800B5012081B04DF6C021FFF74A
S315080043F8A3FF01B000BDC04600B5012881B006D0AC
S3150800440818B94DF6C023994209D001B000BD4DF63A
S31508004418C0239942F9D10448FEF794F9F5E702480A
S31508004428FEF798F9F1E7C046DC39002000B5012007
S3150800443881B04DF6C021FFF7DFFF01B000BDC046C9
S3150800444800B583B002A9002341F8043DFCF7F0FC47
S31508004458019803B000BDC046002330B44260154633
S315080044680C460160C360836084461A460132D3004D
S315080044780344802ACCF81430CCF810300CF1080C18
S31508004488F4D114F0070319BFC3F1080101F11003A9
S31508004498194610239D4208D3436804EB010243F0EA
S315080044A801030261536030BC704700230360FAE7D2
S315080044B803682DE9F00F04461BB90020BDE8F00F84
S315080044C870470029F9DB0B31162917DC102502225B
S315080044D8042302339B002344D868984200F0E080FE
S315080044E842688368C16822F001020244D9608B6079
S315080044F85368083043F001035360DFE721F00705E6
S31508004508B5F5FC7FC0F089816A0A3DD0042A00F215
S31508004518C280AB0903F13802530002339B0004EB4F
S31508004528030CDCF80C00844505D10CE0002B3FDAB7
S31508004538C068844507D0436823F00101C5EB010329
S315080045480F2BF3DD013A02F1010804F11006D6F83B
S3150800455808C0664508BF04F1080B57D0DCF80430D4
S3150800456823F00101C5EB01000F2810DC0028F660CE
S31508004578B660C0F29F800CEB010253680CF1080084
S3150800458843F00103536099E7EA085300C5E745F085
S3150800459801020CEB0503CCF8042040F00102F36095
S315080045A8B3601850DE609E605A600CF1080085E713
S315080045B88368C2680144DA6093604B68083043F040
S315080045C801034B607AE74A0A042A00F2ED808B0950
S315080045D803F138077B0002339B0004EB030290685B
S315080045E8904200F0EC80436823F00103994202D216
S315080045F880688242F7D1C36804F1080BCCF80C30FE
S31508004608CCF80800C0F80CC0C3F808C001234FEA64
S31508004618A80213FA02F1DBF80470B94200F29F8087
S3150800462839420BD1490028F00303394203F104083B
S3150800463804D14900394208F10408FAD008F10103FF
S31508004648DB0004EB0309C2464A46D068824206D113
S315080046584BE0BCF1000F56DAC068824245D0436881
S3150800466823F00103C5EB030CBCF10F0FF1DD45F090
S31508004678010300EB0502C168436050F8083F42F899
S315080046880CC0D9608B604CF00103F260B260D6604A
S315080046989660536012E7142A2ED85B3253003CE71B
S315080046A800F10803D868834208BF02F102083FF4FC
S315080046B84CAF15E7B1F5007F85D2C90888100122E5
S315080046C8824004F1080BDBF804300131C9002144A3
S315080046D81343CBF804308B68CCF80C10CCF80830A8
S315080046E8C3F80CC0C1F808C090E70AF1010A1AF025
S315080046F8030F24D00832A8E7542A10D82B0B03F145
S315080047086E02530009E700EB03025368C16843F0D9
S315080047180103536050F8083FD9608B60CEE6B2F5BE
S31508004728AA7F04D8EB0B03F177025300F5E640F2AB
S3150800473854539A423ED97E22A3F58B63EDE6424648
S31508004748484600E0013A12F0030F4BD0034653F8E7
S3150800475808099842F6D04900B94200D801BBDBF8E7
S315080047680800426822F00102C5EB02010F29CCBFF6
S3150800477800230123954288BF43F00103002B7FF4E9
S315080047889CAE45F00103436000EB050241F00103C6
S31508004798CBF808205360083090E60AF1040A490065
S315080047A83942FAD0D04649E7142A14D802F15B07E9
S315080047B87B0010E7AB0C03F17C025300ADE6B91099
S315080047C801228A4004F1080BDBF804301343CBF8BE
S315080047D80430034612E7542A0AD80B0B03F16E076E
S315080047E87B00F8E66FEA01031F40CBF80470B2E7CE
S315080047F8B2F5AA7F04D8CB0B03F177077B00EAE664
S3150800480840F254539A4203D97E27A3F58B63E2E60E
S315080048188B0C03F17C077B00DDE6EA08530058E6B3
S315080048282DE9F0010746084600294FD0A1F10804EA
S31508004838626807F1080822F0010104EB010CDCF8AC
S31508004848043023F00105D8F8083063457BD012F008
S315080048580106CCF804503CD000200CEB05035A6836
S3150800486812F0010F08D14919002840D0DCF80820B1
S31508004878DCF80C30D3609A6041F00103636061503C
S3150800488818BBB1F5007F4BD34A0A042A3FD88B09CF
S3150800489803F13802530002339B0007EB0300D0F8F4
S315080048A808C0844567D0DCF8043023F00103994230
S315080048B803D2DCF808C06045F5D1DCF80C30E360B3
S315080048C8C4F808C0CCF80C409C600120BDE8F0018B
S315080048D8704750F8083CE41AA268C91807F110038B
S315080048E89A4243D0E3683046D3609A60B5E7DCF865
S315080048F8082007F110039A42BAD141F00103D4609F
S315080049089460E260A260636061500130DEE7142AB1
S315080049182ED9542A39D80B0B03F16E025300BAE77D
S31508004928CA089110012010FA01F1D8F804301218B3
S31508004938D2003A440B43C8F804309368E260A3608F
S31508004948DC609460C2E712F0010F294407D150F8D9
S31508004958083CE41AE268C918A368DA60936041F06B
S3150800496801036360C8F808400120AFE7012074E72F
S315080049785B3253008FE7911001228A40D8F8043039
S315080049881343C8F80430634699E7B2F5AA7F04D8F2
S31508004998CB0B03F1770253007DE740F254539A4252
S315080049A803D97E22A3F58B6375E78B0C03F17C028A
S315080049B8530070E7044600F00BF80020FFF73CFCAC
S315080049C8204600F001F8C046FCF7F8FFFEE7C046A7
S315080049D830B5084B81B01C684CB1074BA20003EBF5
S315080049E80205013C55F8043D9847002CF9D101B059
S315080049F830BDC046F0390020F439002082B0EC46B4
S31508004A082DE9005000F006F8DDF804E002B00CBC09
S31508004A187047C0462DE9704314461E4680468946A7
S31508004A2800F038FA069B00FB06F604FB0166A0FBB5
S31508004A3804453544B8EB040869EB050983E800031F
S31508004A48BDE870832DE9704314461E46804689469C
S31508004A5800F010F8069B00FB06F604FB0166A0FBAF
S31508004A6804453544B8EB040869EB050983E80003EF
S31508004A78BDE8708300292DE9F04F1F4687B0164612
S31508004A8814463D46C0F2EC800022002F0192C0F27F
S31508004A98F08083462646274688462846002D57D15D
S31508004AA88C4265D9B4F5803FC0F0D781B4F1807FD0
S31508004AB8C0F0DF8118230820F54A37FA03F1535C5A
S31508004AC8C11A0AD0C1F120032BFA03F308FA01F236
S31508004AD88F4043EA02080BFA01FB4FEA174A514688
S31508004AE8404600F0C5FB3E045146360C814606FB97
S31508004AF800F5404600F0F8FB4FEA1B4343EA014439
S31508004B08A54208D9E41909F1FF3904D2A54284BF98
S31508004B1809F1FF39E419641B5146204600F0A8FB41
S31508004B28514606FB00F60546204600F0DDFB4FEA2F
S31508004B380B431B0C43EA01418E4205D9013DCB19AB
S31508004B4802D29E4288BF013D45EA0940002103E09A
S31508004B588D4264D9002001460C460199034611B1D5
S31508004B685B4264EB44041846214607B0BDE8F08F5B
S31508004B7824B90120214600F07BFB0746B7F5803F9C
S31508004B887FD3B7F1807FC0F0778118230820C04A01
S31508004B9837FA03F1535CB0EB030940F08280C7EBA0
S31508004BA808044FEA07483E0C4FEA18484FF001092F
S31508004BB82046314600F05CFB314608FB00F5824684
S31508004BC8204600F091FB4FEA1B4343EA0144A542FD
S31508004BD808D9E4190AF1FF3A04D2A54284BF0AF1B2
S31508004BE8FF3AE419641B3146204600F041FB31467A
S31508004BF808FB00F80546204600F076FB4FEA0B430B
S31508004C081B0C43EA0141884505D9013DCB1902D257
S31508004C18984588BF013D45EA0A4049469CE7B5F5E7
S31508004C28803FC0F08C80B5F1807FC0F01F811823C3
S31508004C384FF0080C964A30FA03F1535CBCEB0309AB
S31508004C4840F08F805F458CBF00230123404538BF5D
S31508004C5843F00103002B3FF47DAF012049467BE76B
S31508004C68404261EB4101002F4FF0FF330193BFF635
S31508004C7810AF019D6FEA05050195744267EB470574
S31508004C8807E7B7F5807F34BF00230823804A34BF77
S31508004C982020182037FA03F1535CB0EB03093FF4D8
S31508004CA87EAF07FA09F7C9F1200328FA03F43E0C80
S31508004CB808FA09F2204631462BFA03F313430393FD
S31508004CC800F0D6FA4FEA074831464FEA18480290E4
S31508004CD808FB00F5204600F007FB039A130C43EA85
S31508004CE80144A54209D9029B013BE419029304D25F
S31508004CF8A54202D9E419591E0291641B3146204679
S31508004D0800F0B6FA314608FB00FA0546204600F0D8
S31508004D18EBFA039A13041B0C43EA0140824506D9A9
S31508004D28013DC01903D2824501D9013DC019029B2C
S31508004D380BFA09FBCAEB000445EA034938E7B5F557
S31508004D48807F34BF00230823514A34BF4FF0200C14
S31508004D584FF0180C30FA03F1535CBCEB03093FF427
S31508004D6871AFC9F1200237FA02F300FA09F143EAEA
S31508004D78010A28FA02F407FA09F704974FEA1A47C4
S31508004D8808FA09F3204639462BFA02F21A4305921D
S31508004D9800F06EFA4FEA0A463946360C804606FB94
S31508004DA800F5204600F0A0FA059A130C43EA0144D8
S31508004DB8A54204D914EB0A0408F1FF3862D3641B28
S31508004DC83946204600F054FA394606FB00F60546E9
S31508004DD8204600F089FA059A13041B0C43EA014099
S31508004DE8864207D9013D10EB0A0003D2864201D94B
S31508004DF8013D504445EA084C049D4FEA0C42C6EB6F
S31508004E0800042B04120C1B0C4FEA1C40290C03FB4C
S31508004E1802FE03FB00F301FB023201FB00F002EB82
S31508004E281E42934288BF00F5803000EB12439C422D
S31508004E380FD34FEA0E4314BF002001201B0C12049F
S31508004E480BFA09F1D21891422CBF002300F001038E
S31508004E58ABB10CF1FF3000217EE6B4F5807F34BF94
S31508004E680023082334BF2020182025E610239C4653
S31508004E78E0E6102318461FE61023184687E660461C
S31508004E88194669E6A54284BF08F1FF38544496E7EF
S31508004E98185500082DE9F04F0E461C4685B01146F0
S31508004EA8154683463746002C5BD1B24279D9B2F506
S31508004EB8803FC0F0C081B2F1807FC0F0CB81182353
S31508004EC80820EA4A35FA03F1535CB0EB030C0BD019
S31508004ED8CCF120032BFA03F306FA0CF205FA0CF5C3
S31508004EE843EA02070BFA0CFB4FEA154A51463846BD
S31508004EF800F0BEF94FEA054851464FEA1848814678
S31508004F0808FB00F6384600F0EFF94FEA1B4343EA78
S31508004F180144A64208D9641909F1FF3904D2A64200
S31508004F2884BF09F1FF396419A41B5146204600F0CD
S31508004F389FF9514608FB00F70646204600F0D4F9C3
S31508004F484FEA0B431B0C43EA01418F4205D9013E40
S31508004F584B1902D29F4288BF013E46EA094C0022F5
S31508004F6879E0B44274D8B4F5803F79D3B4F1807F38
S31508004F78C0F06A8118230820BC4A34FA03F1535C46
S31508004F88B0EB03097BD15D458CBF00230123B442EE
S31508004F9838BF43F00103002B5AD04FF0010C4A469C
S31508004FA859E01AB9012000F063F90546B5F5803FBE
S31508004FB8C0F0E380B5F1807FC0F049811823082046
S31508004FC8AA4A35FA03F1535CB0EB030940F0E580C9
S31508004FD84FEA0548C5EB06042F0C4FEA18484FF068
S31508004FE801092046394600F043F9394608FB00F618
S31508004FF88246204600F078F94FEA1B4343EA014403
S31508005008A64208D964190AF1FF3A04D2A64284BF0F
S315080050180AF1FF3A6419A41B3946204600F028F914
S31508005028394608FB00F80646204600F05DF94FEABF
S315080050380B431B0C43EA0141884505D9013E4B1928
S3150800504802D2984588BF013E46EA0A4C4A4602E01B
S315080050584FF0000C62466046114605B0BDE8F08F71
S31508005068B4F5807F34BF00230823804A34BF202044
S31508005078182034FA03F1535CB0EB030983D0C9F15D
S31508005088200235FA02F304FA09F143EA010836FA66
S3150800509802F44FEA184706FA09F3204639462BFA66
S315080050A802F21A4305FA09F50392029500F0E0F8A8
S315080050B84FEA08463946360C824606FB00F520466E
S315080050C800F012F9039A130C43EA0144A54205D9DC
S315080050D814EB08040AF1FF3AC0F0BF80641B39468E
S315080050E8204600F0C5F8394606FB00F60546204670
S315080050F800F0FAF8039A13041B0C43EA01408642A7
S3150800510807D9013D10EB080003D2864201D9013DB3
S31508005118404445EA0A4C029D4FEA0C42C6EB000495
S315080051282B04120C1B0C4FEA1C40290C03FB02FE2D
S3150800513803FB00F301FB023201FB00F002EB1E42FF
S31508005148934288BF00F5803000EB12439C4210D387
S315080051584FEA0E4314BF0020012012041B0C0BFA59
S3150800516809F1D21891422CBF002000F0010000284E
S3150800517879D00CF1FF3C00226DE7B5F5807F34BF86
S3150800518800230823394A34BF2020182035FA03F1AA
S31508005198535CB0EB03093FF41BAF05FA09F5C9F1EF
S315080051A8200336FA03F42F0C06FA09F22046394684
S315080051B82BFA03F31343019300F05AF84FEA05480C
S315080051C839464FEA1848009008FB00F6204600F0D2
S315080051D88BF8019A130C43EA0144A64209D9009BA5
S315080051E8013B6419009304D2A64202D96419591ED0
S315080051F80091A41B3946204600F03AF8394608FBC0
S3150800520800FA0646204600F06FF8019A13041B0CAC
S3150800521843EA0140824506D9013E401903D2824530
S3150800522801D9013E4019009B0BFA09FBCAEB000499
S3150800523846EA0349D5E6B2F5807F34BF002308233A
S3150800524834BF202018203CE61023184694E610237D
S315080052581846B5E61023184633E6A54284BF0AF170
S31508005268FF3A44443AE70246F5E6C04618550008A8
S31508005278002934D00123002210B488422CD30124F3
S315080052882407A14204D2814202D209011B01F8E788
S31508005298E400A14204D2814202D249005B00F8E741
S315080052A8884201D3401A1A434C08A04202D3001B6D
S315080052B85C0822438C08A04202D3001B9C082243A0
S315080052C8CC08A04202D3001BDC082243002803D0DE
S315080052D81B0901D00909E3E7101C10BC704702B581
S315080052E800F00AF8002002BD03B5FFF7C1FF0EBC9F
S311080052F84243891A1847C0467047C04652
S3150800530848656C6C6F2C2065436F7320776F726CD9
S3150800531864210000082008000D0A00002F6465763D
S315080053282F74747964696167000000002F646576D4
S315080053382F68616C646961670000000025730A00BC
S315080053482F6465762F736572300000002F646576C2
S315080053582F7365723100000068616C646961675F64
S315080053687365745F636F6E66696700000000000006
S31508005378000400000006000000000000000000000D
S315080053880000000000000000000000000000000007
S315080053980010000000000000003000000020000097
S315080053A800000000320000004B0000006E000000FC
S315080053B80000000096000000C80000002C0100004C
S315080053C858020000B0040000080700006009000041
S315080053D8100E0000C0120000201C000080250000E6
S315080053E840380000004B00000096000000E100006D
S315080053F800C2010000840300253038583A2000000E
S31508005408253032582000000020202000207C00008B
S31508005418256300007C0A00003031323334353637CC
S315080054283839414243444546000000003C4261641D
S3150800543820666F726D617420737472696E673A209C
S3150800544800000000203A00003E0A000030313233DE
S315080054583435363738390000303132333435363753
S315080054683839616263646566000000003C6E756CD5
S315080054786C3E00003C4E6F74206120737472696E2E
S31508005488673A2030780000003E000000253034587E
S31508005498200000000A0000002530385820000000C7
S315080054A820202020202020202000000049646C6548
S315080054B820546872656164006D61696E00000000B9
S315080054C898340020000000000000000000000000DA
S315080054D86D2F0008512C0008B12C0008D92B00089C
S315080054E80000000000000000B12B0008C52B0008CA
S315080054F8BD2B0008C12B00080101010101010101AA
